:0200000088294D
:1000060083120313F1011430710203180D28000046
:06001600F10A06280800B3
:0E001C008312031325088A00240882000800BE
:10002A00831203138715B201B30131083302031D8A
:10003A00202830083202031827280320B20A03199D
:10004A00B30A1A28F7308705B201B3013008D03C49
:10005A00F1003108031C013E073CF200720833022A
:10006A00031D392871083202031840280320B20AF6
:08007A000319B30A2B2808004A
:1000820083120313F101F20131087202031D4B289E
:100092003008710203186028F301F4010130740280
:1000A200031D55284C30730203185C280000F30A24
:1000B2000319F40A4F28F10A0319F20A4528080025
:1000C20083120313F801F9011030FC00710DF80DD1
:1000D200F90D7408F8027508031C750FF90203186C
:1000E20079287408F80775080318750FF9070310C3
:0A00F200F00DF10DFC0B672808006B
:1000FC0007308312031392000C3097000C309D00D4
:0E010C00FA3083169200831295019B010800C1
:10011A00BF308316031386058617FD30860506153C
:02012A000800CB
:10012C0083120313AC01AD01AE01AF01FD308605A6
:10013C000230B0000030B100412086140320FD30A5
:10014C008605AE01AF0104300605F1007108003AD6
:10015C00031DC128AE0A0319AF0A2F08753C031DF5
:10016C00B9282E08303C0318C028F430F0000130B8
:10017C00F100E828A928AE01AF0104300605F10012
:10018C007108003A0319DF28AC0A0319AD0A0320E1
:10019C00AE0A0319AF0A2F08753C031DD7282E0889
:1001AC00303C0318DE28F430F0000130F100E82870
:1001BC00C3280630F4000030F5002C08F0002D08A0
:0601CC00F10061200800B3
:1001D2000E208A110A128000840AA40A0319A50AB1
:0801E200F003031DE9280800E9
:1001EA0083120313AC01AD01AE01AF01BF30860526
:1001FA000230B0000030B100412006170320BF30A2
:10020A008605AE01AF0180300605F1007108003A9B
:10021A00031D2029AE0A0319AF0A2F08753C031DD6
:10022A0018292E08303C03181F29F430F000013039
:10023A00F10047290829AE01AF0180300605F10017
:10024A007108003A03193E29AC0A0319AD0A0320C2
:10025A00AE0A0319AF0A2F08753C031D36292E086A
:10026A00303C03183D29F430F0000130F1004729F1
:10027A0022290630F4000030F5002C08F0002D0881
:06028A00F10061200800F4
:0C02900083120313880195019B010800F4
:10029C0005308312031388002D0895002C089B0051
:0202AC00080048
:1002AE0083120313AC01AD0100302D02031D612931
:1002BE0032302C0203186B299630B000B101152094
:1002CE00AC0A0319AD0A5B299630B000B1011520B6
:0402DE006B29080080
:1002E200831203131F151F1D772974291E08F1009D
:0E02F200F00183161E08F0040030F10408002D
:100300004130831203139F008E3083169F00080034
:1003100083120313A001A1012C30A2000130A3001D
:1003200083168801B53086007130870083128701FB
:10033000880180218D207E20712170088312A60003
:100340007108A700F52096207008A8007108A90080
:1003500020300605AA0010300605AB00270823024E
:10036000031DB429260822020318BD292008003ADB
:10037000031DBD290130A000871723082702031D94
:10038000C329220826020318CE292008013A031D9A
:10039000CE29A0010130A1007F3087052108003A55
:1003A000031D0A2A2B08003A031DEA292A08003AED
:1003B000031DEA29AC014630AD004E21861AE12921
:1003C000DE29AC01AD014E21F430B0000130B100A6
:1003D0004120092A2B08003A031DF7292A08003A70
:1003E0000319F729AC014630AD004E21092A2B082C
:1003F000003A0319042A2A08003A031D042A463049
:10040000AC00AD014E21092A4630AC005030AD00A1
:100410004E21362A6430B0000030B10041202B0854
:10042000003A031D1A2A2A08003A031D1A2A4821F5
:100430005721192A00302902031D202A0F302802D3
:1004400003182D2A4630AC001430AD004E212C305C
:10045000B0000130B1004120362A3C30AC003C30C5
:10046000AD004E219630B000B10141209C29372AC1
:02400E004A2F37
:00000001FF
